:100000000C9465000C948D000C948D000C948D0064
:100010000C948D000C948D000C948D000C948D002C
:100020000C948D000C948D000C948D000C948D001C
:100030000C948D000C948D000C948D000C948D000C
:100040000C9441070C948D000C94E9080C941B0946
:100050000C948D000C948D000C948D000C948D00EC
:100060000C949F040C948D00000000080002010015
:100070000003040700000000000000000102040863
:100080001020408001020408102001020408102002
:10009000040404040404040402020202020203032E
:1000A00003030303000000002300260029000000D2
:1000B0000000250028002B0000000000240027007D
:1000C0002A00B40201044B09E90211241FBECFEF3C
:1000D000D8E0DEBFCDBF11E0A0E0B1E0E6E4FEE194
:1000E00002C005900D92A03CB107D9F723E0A0EC27
:1000F000B1E001C01D92A537B207E1F710E0C8ECEE
:10010000D0E004C02297FE010E94D10CC23CD1076E
:10011000C9F70E948F090C94160F0C9400008EEC06
:1001200091E00E94450B84ED91E00E94450B8AED21
:1001300091E00E94450B80EE91E00E94450B87EE16
:1001400091E00C94450BEF92FF920F931F93CF9386
:10015000DF93CDB7DEB72C970FB6F894DEBF0FBE96
:10016000CDBF62EA71E0CE0107960E94B30B62EA4E
:1001700071E0CE0101960E94B30B64E070E0CE0105
:1001800007960E94760B60E470E0CE0107960E940D
:10019000760BE090EB01F090EC0189E1E816F104B8
:1001A00018F088E1E82EF12C00E010E00E151F0594
:1001B0008CF4B80187EE91E0043011050CF05FC0BB
:1001C0000E94AA0C682FCE0107960E94240C0F5F94
:1001D0001F4FECCF60E171E0CE0107960E947A0CD0
:1001E000882331F060E171E084ED92E00E94EE0935
:1001F00065E171E0CE0107960E947A0C882339F000
:10020000BE016F5F7F4F80EE91E00E94C90B6AE1F3
:1002100071E0CE0107960E947A0C882339F0BE0166
:100220006F5F7F4F8AED91E00E94C90B6FE171E033
:10023000CE0107960E947A0C882361F062EA71E091
:1002400080EE91E00E94E00B62EA71E08AED91E0BD
:100250000E94E00BCE0101960E94450BCE0107964D
:100260000E94450B2C960FB6F894DEBF0FBECDBF93
:10027000DF91CF911F910F91FF90EF9008950E9411
:10028000AA0C682FCE010196A0CF64ED71E080EE3C
:1002900091E00E94670C882341F06EEC71E08AEDDA
:1002A00091E00E94670C811128C060EE71E084ED3E
:1002B00091E00E94C90B6AED71E08EEC91E00E9422
:1002C000C90B8FEF91E00E94410640E060E08FEFA4
:1002D00091E00E944F0660EE71E08FEF91E00E9486
:1002E000DC0941E060E08FEF91E00E944F066AED8B
:1002F00071E08FEF91E00C94DC09089560E084E0F8
:100300000E94510860E087E00E94510861E085E0AA
:100310000E94510861E085E00E948A088FEF91E019
:100320000E94E2068FEF91E00E94F5058FEF91E0C9
:100330000E94410626E040E855E260E070E084ED6E
:1003400092E00E94E30A66E470E087EE91E00E948A
:10035000760B60E170E080EE91E00E94760B60E148
:1003600070E08AED91E00E94760B60E170E084ED30
:1003700091E00E94760B60E170E08EEC91E00E94CB
:10038000760B64E271E080EE91E00E94E00B65E3A1
:1003900071E08AED91E00E94E00B62EA71E084ED89
:1003A00091E00E94E00B62EA71E08EEC91E00E9425
:1003B000E00B0E94450168EE73E080E090E00C9451
:1003C000BA0784E00E94C008019719F585E00E94F1
:1003D000C0080197F1F461E471E084ED92E00E94BD
:1003E000EE0966E471E080EE91E00E94E00B67E5C3
:1003F00071E08AED91E00E94E00B0E94450160E10E
:1004000077E280E090E00E94BA0760E085E00C941B
:100410008A08089586EF91E00E940E0786EF91E02A
:100420000E940A079093CD018093CC012091C801CE
:100430003091C9012817390774F46FE571E084ED34
:1004400092E00E94EE098091CC019091CD019093B1
:10045000C9018093C8012091CC013091CD018091D8
:10046000C8019091C9012817390774F464E671E056
:1004700084ED92E00E94EE098091CC019091CD0133
:100480009093C9018093C80108958DEE91E00E9478
:100490000E078DEE91E00E940A079093CB018093A6
:1004A000CA012091C6013091C7012817390774F499
:1004B00069E671E084ED92E00E94EE098091CA0144
:1004C0009091CB019093C7018093C6012091CA01FE
:1004D0003091CB018091C6019091C701281739074F
:1004E00074F46EE671E084ED92E00E94EE09809172
:1004F000CA019091CB019093C7018093C6010895E2
:10050000CF93DF938091C0019091C101892B49F570
:10051000C0910601D0910701C130D10529F487E0CF
:100520000E94C008892B41F087E00E94C008909388
:1005300007018093060115C00E948B076093C201DA
:100540007093C3018093C4019093C501D093C101FE
:10055000C093C00163E771E084ED92E00E94EE0970
:10056000E3CFDF91CF91089522E040E167E28FEF82
:1005700091E00E94CC0549E050E06AE070E086EF2F
:1005800091E00E94E4064BE050E06CE070E08DEEFC
:1005900091E00E94E40662EA71E087EE91E00E9439
:1005A000B30B62EA71E080EE91E00E94B30B62EA65
:1005B00071E08AED91E00E94B30B62EA71E084ED94
:1005C00091E00E94B30B62EA71E08EEC91E00C9432
:1005D000B30B0C948F00CF93C1E084ED92E00E94A6
:1005E000000A892B79F084ED92E00E94190A8A3082
:1005F00019F4C093E601F1CF682F87EE91E00E94D5
:10060000240CEBCFCF9108950F931F930E94EB0220
:100610008091E601882351F00E94A30062EA71E014
:1006200087EE91E00E94E00B1092E6010E948B079A
:100630000091C2011091C3012091C4013091C50104
:10064000601B710B820B930B65367105810591055B
:1006500030F08091C0019091C101019761F00E943A
:1006600045010E94E1010E940A020E9445021F9179
:100670000F910C9480021092C1011092C001EFCF33
:1006800080913B0290E020913C02821B91090895E9
:1006900020913C0280913B02281750F4E22FF0E0B9
:1006A000E35CFD4F808190E02F5F20933C02089532
:1006B0008FEF9FEF0895E0913C0280913B02E81795
:1006C00030F4F0E0E35CFD4F808190E008958FEF1F
:1006D0009FEF08950895CF92DF92EF92FF920F93CC
:1006E0001F93CF93DF937C01CB018A0120911702E6
:1006F000222389F0EB016B01C40ED51ECC15DD055C
:1007000069F06991D701ED91FC910190F081E02DA4
:10071000C7010995F3CF642F0E947604C801DF91C9
:10072000CF911F910F91FF90EF90DF90CF900895A0
:10073000CF93DF931F92CDB7DEB769832091170265
:100740002223D1F020911802203240F021E030E045
:10075000FC013383228380E090E015C08091190270
:10076000E82FF0E0E65EFD4F998190838F5F8093E4
:1007700019028093180205C061E0CE0101960E9423
:10078000760481E090E00F90DF91CF910895FC0115
:100790001382128248EE53E060E070E04483558398
:1007A000668377838CE791E091838083089510922C
:1007B0003C0210923B0210921902109218020C9403
:1007C000050481E08093170260933A0210921902A7
:1007D0001092180208950F93062F21E040911802FD
:1007E0006AE172E080913A020E9423041092190299
:1007F00010921802109217020F91089561E00C9464
:10080000EB038BE092E00C94C7031092CA0281E0E4
:100810008093C8021092C70261E082E10E948A08B8
:1008200061E083E10E948A08E9EBF0E080818E7F3D
:10083000808380818D7F808388E48093B80085E405
:100840008093BC0008950F93413208F046C0909108
:10085000CA029111FCCF92E09093CA020093C802A1
:100860009FEF90935D021092A2024093A102FB01C0
:1008700063EA72E0DB019A2F961B941718F49191AA
:100880009D93F9CF1092C9029091C902880F892BCC
:100890008093C9028091C702813041F41092C7024F
:1008A0008091C9028093BB0085EC01C085EE8093E6
:1008B000BC00222321F08091CA028230E1F38091B2
:1008C0005D028F3F61F080915D02803251F0809136
:1008D0005D02803341F483E007C081E005C080E021
:1008E00003C082E001C084E00F910895613298F462
:1008F0002091CA02243089F460937F02FC0181E8D0
:1009000092E0DC012A2F281B261718F421912D9341
:10091000F9CF80E0089581E0089582E0089585EDA3
:100920008093BC008091BC0084FDFCCF1092CA0271
:10093000089585EC8093BC001092CA0208951F921E
:100940000F920FB60F9211242F933F934F935F9303
:100950006F937F938F939F93AF93BF93EF93FF9387
:100960008091B900887F803609F49CC068F5883290
:1009700009F45BC090F4803109F454C038F4882342
:1009800009F4F5C0883009F44DC0F5C0883109F488
:100990004CC0803209F45DC0EEC0803409F468C0F8
:1009A00048F4803309F455C0883309F0E4C08093DB
:1009B0005D02A8C0803509F44FC0883509F45DC0D8
:1009C000883409F0D8C0D5C0883909F4C6C0A8F465
:1009D000883709F467C038F4883609F463C0803773
:1009E00009F460C0C8C0883809F4B7C0803909F478
:1009F0005FC0803809F0BFC05BC0803B09F485C090
:100A000038F4803A09F466C0883A09F47EC0B3C06D
:100A1000803C09F4A6C0883C09F4A3C0883B09F4D3
:100A200089C0A9C08091C90210C09091A202809192
:100A3000A102981770F5E091A20281E08E0F8093D9
:100A4000A202F0E0ED55FD4F80818093BB0085EC64
:100A500085C080935D028DC0E091A20281E08E0F7F
:100A60008093A2028091BB00F0E0ED55FD4F8083A2
:100A70009091A2028091A1026DC0E091A20281E05A
:100A80008E0F8093A2028091BB00F0E0ED55FD4FE8
:100A900080838091C80281116CC081E08093C7027D
:100AA00084EA60C083E08093CA0210925E02CFCFD6
:100AB00080915E02803208F050C0E0915E0281E0D9
:100AC0008E0F80935E028091BB00F0E0E15AFD4FF3
:100AD0008083BDCF80915E02803230F4E0915E026F
:100AE000F0E0E15AFD4F10820E948F0460915E0297
:100AF00070E0E091C302F091C4028FE592E00995A5
:100B000010925E020E94990436C084E08093CA026B
:100B10001092800210927F02E091C502F091C6020D
:100B2000099580917F02811105C081E080937F0249
:100B300010928102E091800281E08E0F809380020A
:100B4000F0E0EF57FD4F80818093BB0090918002D1
:100B500080917F02981708F47ACF85E88093BC00D3
:100B60000AC085EC8093BC001092CA0204C01092A7
:100B70005D020E948F04FF91EF91BF91AF919F9111
:100B80008F917F916F915F914F913F912F910F9036
:100B90000FBE0F901F901895FC01138212828CE8F3
:100BA00091E091838083648341872287138608952F
:100BB0001F93CF93DF93EC01162F6C818BE092E0B3
:100BC0000E94E103E0910B02F0910C026B85612B16
:100BD0000190F081E02D8BE092E009958BE092E0AE
:100BE000DF91CF911F910C94FE0328E0FC01238735
:100BF00060E00C94D8051F93CF93DF93EC01162F80
:100C000064600E94D80581E090E00E94E207612FB5
:100C10006B7FCE010E94D80582E390E0DF91CF91F7
:100C20001F910C94E2071F93CF93DF93EC01162FD3
:100C30000E94D805612FCE01DF91CF911F910C94B6
:100C4000FB05EF92FF921F93CF93DF931F92CDB7D7
:100C5000DEB77C01162F607F642B49830E94130648
:100C6000612F6295607F4981642BC7010F90DF91EE
:100C7000CF911F91FF90EF900C94130640E00C94DD
:100C8000210661E00E943E0680ED97E00C94E207A9
:100C900062E00E943E0680ED97E00C94E207CF935D
:100CA000DF93CDB7DEB728970FB6F894DEBF0FBE3F
:100CB000CDBF28E0E8E0F1E0DE01119601900D9251
:100CC0002A95E1F7FC012085241710F44FEF420F1D
:100CD000FE013196E40FF11DE40FF11D2081260F76
:100CE0002068622F28960FB6F894DEBF0FBECDBFE6
:100CF000DF91CF910C943E06FC016681262F246083
:100D000026836C600C943E0641E00E94210680E040
:100D100090E00895CF93DF93EC01423018F08D817D
:100D200088608D834887222329F0413019F48D8112
:100D300084608D8362E370E080E090E00E94BA07F7
:100D400060E3CE010E94130665E070E080E090E071
:100D50000E94BA0760E3CE010E94130686E990E084
:100D60000E94E20760E3CE010E94130660E2CE011A
:100D70000E9413066D816062CE010E943E0684E0EF
:100D80008E83CE010E947C06CE010E94410682E045
:100D90008F8366E0CE010E943E06CE01DF91CF91A7
:100DA0000C944806CF93DF93EC018BE092E00E9415
:100DB000D7031D8220E04A856985CE01DF91CF915E
:100DC0000C948A060C94D2060F931F93CF93DF9353
:100DD000EC01162F042F688379834A835B8360E0DC
:100DE000812F0E94510861E0812F0E948A0860E0F3
:100DF000802F0E94510861E0802F0E948A0883E0C2
:100E00008C831E821D8218861F82DF91CF911F91D5
:100E10000F910895FC018781908508951F93CF93CA
:100E2000DF93EC0188810E94C008182F8A810E94FC
:100E3000C008880F991F812B2C812817F1F0E82F0B
:100E4000FF27E7FDF09594E0290290011124E22BA1
:100E5000F32BE057FE4F90812D813E81290F311DEC
:100E600097FD3A953E832D83833031F43595279550
:100E70003595279538872F838C83DF91CF911F91EC
:100E800008951F920F920FB60F9211242F933F9344
:100E90008F939F93AF93BF938091CC029091CD029B
:100EA000A091CE02B091CF023091CB0223E0230F6C
:100EB0002D3720F40196A11DB11D05C026E8230F92
:100EC0000296A11DB11D2093CB028093CC0290937A
:100ED000CD02A093CE02B093CF028091D002909128
:100EE000D102A091D202B091D3020196A11DB11DF1
:100EF0008093D0029093D102A093D202B093D302F8
:100F0000BF91AF919F918F913F912F910F900FBE05
:100F10000F901F9018952FB7F8946091CC027091A4
:100F2000CD028091CE029091CF022FBF08953FB79E
:100F3000F8948091D0029091D102A091D202B09108
:100F4000D30226B5A89B05C02F3F19F00196A11D1D
:100F5000B11D3FBF6627782F892F9A2F620F711D11
:100F6000811D911D42E0660F771F881F991F4A95CA
:100F7000D1F70895CF92DF92EF92FF92CF93DF9354
:100F80006B017C010E949707EB01C114D104E104BD
:100F9000F10489F00E94AC0C0E9497076C1B7D0B3A
:100FA000683E734090F381E0C81AD108E108F10867
:100FB000C851DC4FEACFDF91CF91FF90EF90DF90E7
:100FC000CF9008958230910538F0880F991F880FCF
:100FD000991F05970197F1F70895789484B5826079
:100FE00084BD84B5816084BD85B5826085BD85B5CD
:100FF000816085BDEEE6F0E0808181608083E1E87C
:10100000F0E01082808182608083808181608083B3
:10101000E0E8F0E0808181608083E1EBF0E08081B6
:1010200084608083E0EBF0E0808181608083EAE788
:10103000F0E0808184608083808182608083808111
:10104000816080838081806880831092C1000895D0
:10105000833081F028F4813099F08230A1F0089536
:101060008730A9F08830B9F08430D1F480918000C5
:101070008F7D03C0809180008F77809380000895DA
:1010800084B58F7702C084B58F7D84BD089580912B
:10109000B0008F7703C08091B0008F7D8093B00047
:1010A0000895CF93DF9390E0FC01E458FF4F249123
:1010B000FC01E057FF4F8491882349F190E0880FAD
:1010C000991FFC01E854FF4FA591B49182559F4FA1
:1010D000FC01C591D4919FB7611108C0F8948C911F
:1010E000209582238C93888182230AC0623051F438
:1010F000F8948C91322F309583238C938881822BA6
:10110000888304C0F8948C91822B8C939FBFDF91CD
:10111000CF9108950F931F93CF93DF931F92CDB775
:10112000DEB7282F30E0F901E859FF4F8491F9012B
:10113000E458FF4F1491F901E057FF4F0491002349
:10114000C9F0882321F069830E9428086981E02F73
:10115000F0E0EE0FFF1FE255FF4FA591B4919FB74E
:10116000F8948C91611103C01095812301C0812BEB
:101170008C939FBF0F90DF91CF911F910F91089596
:10118000CF93DF93282F30E0F901E859FF4F849186
:10119000F901E458FF4FD491F901E057FF4FC49192
:1011A000CC2391F081110E942808EC2FF0E0EE0F83
:1011B000FF1FEC55FF4FA591B4912C912D2381E099
:1011C00090E021F480E002C080E090E0DF91CF91D8
:1011D00008951F920F920FB60F9211242F938F93A1
:1011E0009F93EF93FF93E091E402F091E5028081F9
:1011F000E091EA02F091EB0282FD12C090818091B1
:10120000ED028F5F8F732091EE02821751F0E09113
:10121000ED02F0E0EC52FD4F958F8093ED0201C09E
:101220008081FF91EF919F918F912F910F900FBE31
:101230000F901F9018951F920F920FB60F921124C6
:101240002F933F934F935F936F937F938F939F93CE
:10125000AF93BF93EF93FF9384ED92E00E943B0A1C
:10126000FF91EF91BF91AF919F918F917F916F917E
:101270005F914F913F912F910F900FBE0F901F9054
:10128000189584ED92E00E94000A21E0892B09F470
:1012900020E0822F08951092D7021092D60288EE95
:1012A00093E0A0E0B0E08093D8029093D902A0939D
:1012B000DA02B093DB0283EB91E09093D502809346
:1012C000D40285EC90E09093E1028093E00284ECFC
:1012D00090E09093E3028093E20280EC90E09093A0
:1012E000E5028093E40281EC90E09093E702809322
:1012F000E60282EC90E09093E9028093E80286ECAB
:1013000090E09093EB028093EA021092ED0210922B
:10131000EE021092EF021092F002089508950E94DA
:10132000ED070E948E090E947E01CDE2DAE00E9464
:1013300004032097E1F30E942D0AF9CFCF92DF92A8
:10134000EF92FF920F931F93CF93DF936C017A017B
:10135000EB01E60EF71E00E010E0CE15DF0561F0B0
:101360006991D601ED91FC910190F081E02DC601CB
:101370000995080F191FF1CFC801DF91CF911F9177
:101380000F91FF90EF90DF90CF9008956115710558
:1013900081F0DB010D900020E9F7AD0141505109CA
:1013A000461B570BDC01ED91FC910280F381E02D8F
:1013B000099480E090E00895DC01ED91FC91DB015F
:1013C00014964D915C9115976D917C910280F381FB
:1013D000E02D099460EA71E00C94C6090F931F9305
:1013E000CF93DF93EC010E94C6098C01CE010E94CD
:1013F000EA09800F911FDF91CF911F910F910895FE
:10140000FC01818D228D90E0805C9F4F821B9109B1
:101410008F7399270895FC01918D828D981731F073
:10142000828DE80FF11D858D90E008958FEF9FEF7D
:101430000895FC01918D828D981761F0828DDF01F6
:10144000A80FB11D5D968C91928D9F5F9F73928FB7
:1014500090E008958FEF9FEF089581E499E0892B44
:1014600049F08BEE92E0892B29F00E94410981110D
:101470000C94EB020895FC01848DDF01A80FB11DCF
:10148000A35ABF4F2C91848D90E001968F739927BA
:10149000848FA689B7892C93A089B1898C918064A7
:1014A0008C93938D848D981306C00288F389E02D68
:1014B00080818F7D80830895CF93DF93EC01888DA9
:1014C0008823C9F0EA89FB89808185FD05C0A88948
:1014D000B9898C9186FD0FC00FB607FCF5CF8081CE
:1014E00085FFF2CFA889B9898C9185FFEDCFCE0118
:1014F0000E943B0AE7CFDF91CF910895CF92DF9210
:10150000FF920F931F93CF93DF931F92CDB7DEB758
:101510006C0181E0D60158968C9358975B969C910C
:101520005B975C968C915C97981307C05096ED91F1
:10153000FC915197808185FD2EC0F601038D10E04E
:101540000F5F1F4F0F731127F02EF601848DF812D5
:1015500011C00FB607FCF9CFD6015096ED91FC9162
:101560005197808185FFF1CFC60169830E943B0AB4
:101570006981EBCF838DE80FF11DE35AFF4F608344
:10158000D6015B960C935B975296ED91FC91539725
:10159000808180620CC0D6015696ED91FC915797E0
:1015A00060835096ED91FC91519780818064808397
:1015B00081E090E00F90DF91CF911F910F91FF900C
:1015C000DF90CF900895BF92CF92DF92EF92FF927B
:1015D000CF93DF93EC016A017B01B22EE889F98990
:1015E00082E08083411581EE580761057105A1F005
:1015F00060E079E08DE390E0A70196010E94AD0CD8
:10160000215031094109510956954795379527953C
:10161000211580E1380798F0E889F989108260E89F
:1016200074E88EE190E0A70196010E94AD0C215074
:101630003109410951095695479537952795EC850C
:10164000FD853083EE85FF852083188EEC89FD892A
:10165000B082EA89FB89808180618083EA89FB8985
:10166000808188608083EA89FB89808180688083AB
:10167000EA89FB8980818F7D8083DF91CF91FF9004
:10168000EF90DF90CF90BF900895FC018081918111
:101690000C946D0DCF93DF93EC01888199810097B5
:1016A00011F00E946D0D198218821D821C821B820E
:1016B0001A82DF91CF9108950F931F93CF93DF93F9
:1016C000EC018B016F5F7F4F888199810E94FC0D37
:1016D000009731F0998388831B830A8381E001C0DE
:1016E00080E0DF91CF911F910F910895CF93DF9309
:1016F000EC0188819981892B29F08A819B81861749
:10170000970760F4CE010E945C0B882341F08C8126
:101710009D81892B19F4E881F981108281E0DF91A4
:10172000CF910895EF92FF920F931F93CF93DF9382
:10173000EC017B018A01BA010E94760B811104C081
:10174000CE010E944A0B07C01D830C83B70188811C
:1017500099810E94D80ECE01DF91CF911F910F91F8
:10176000FF90EF900895FC01118210821382128283
:10177000158214826115710559F0FB01019000205A
:10178000E9F7AF0141505109461B570B0C94920BDE
:101790000895CF93DF93EC01FB018617970761F063
:1017A000608171816115710529F0448155810E9424
:1017B000920B02C00E944A0BCE01DF91CF91089597
:1017C000CF93DF93EC016115710561F0FB0101908E
:1017D0000020E9F7AF0141505109461B570B0E9409
:1017E000920B02C00E944A0BCE01DF91CF91089567
:1017F000EF92FF920F931F93CF93DF93EC017B0146
:101800000C811D816115710511F480E016C0411530
:10181000510591F0040F151FB8010E94760B882323
:10182000A1F3288139818C819D81B701820F931F9B
:101830000E94D80E1D830C8381E0DF91CF911F9110
:101840000F91FF90EF900895CF93DF9300D0CDB725
:10185000DEB769831A8241E050E0BE016F5F7F4FBF
:101860000E94F80B0F900F90DF91CF910895CF93C6
:10187000DF93DC01ED91FC91EB01A881B9813097F8
:1018800011F01097C9F4109759F0EB012C813D81AC
:10189000232B31F08C9190E091958195910914C0A2
:1018A000309781F0DC0114968D919C911597892BCE
:1018B00049F0808190E008C0BD01CF01DF91CF9158
:1018C0000C94CF0E80E090E0DF91CF910895FC0161
:1018D00044815581FB01248135814217530741F42E
:1018E0000E94370C21E0892B09F020E0822F089517
:1018F00080E00895FC0124813581232B31F421E01F
:1019000061157105A1F0FB0108C0FC018081918186
:101910006115710531F421E0FC018081882339F0E3
:1019200005C00E94CF0E21E0892B09F020E0822F14
:101930000895FC01248135816217730748F4808182
:101940009181009729F0FC01E60FF71F808108952F
:1019500080E008950C94990C0895A1E21A2EAA1B18
:10196000BB1BFD010DC0AA1FBB1FEE1FFF1FA2174F
:10197000B307E407F50720F0A21BB30BE40BF50B4C
:10198000661F771F881F991F1A9469F760957095D5
:10199000809590959B01AC01BD01CF010895EE0F9C
:1019A000FF1F0590F491E02D0994CF93DF938230CF
:1019B000910510F482E090E0E0917303F0917403DC
:1019C00020E030E0A0E0B0E0309739F14081518173
:1019D00048175907B8F04817590771F48281938165
:1019E000109729F013969C938E9312972CC0909386
:1019F00074038093730327C02115310531F042171A
:101A0000530718F0A901DB0101C0EF019A01BD01E4
:101A1000DF010280F381E02DD7CF21153105F9F0E8
:101A2000281B390B2430310580F48A819B81611594
:101A3000710521F0FB019383828304C090937403AA
:101A400080937303FE01329644C0FE01E20FF31F40
:101A50008193919322503109398328833AC0209190
:101A6000710330917203232B41F4209102013091D4
:101A70000301309372032093710320910001309190
:101A800001012115310541F42DB73EB74091040104
:101A900050910501241B350BE0917103F091720305
:101AA000E217F307A0F42E1B3F0B2817390778F035
:101AB000AC014E5F5F4F2417350748F04E0F5F1F94
:101AC00050937203409371038193919302C0E0E0BD
:101AD000F0E0CF01DF91CF910895CF93DF9300978E
:101AE00009F487C0FC01329713821282C0917303FC
:101AF000D0917403209781F420813181280F391F00
:101B000080917103909172038217930779F5F09396
:101B10007203E09371036DC0DE0120E030E0AE1788
:101B2000BF0750F412964D915C9113979D0141159A
:101B3000510509F1DA01F3CFB383A28340815181CA
:101B4000840F951F8A179B0771F48D919C911197B3
:101B5000840F951F02969183808312968D919C919C
:101B60001397938382832115310529F4F09374032D
:101B7000E09373033EC0D9011396FC93EE93129742
:101B80004D915D91A40FB51FEA17FB0779F4808191
:101B90009181840F951F0296D90111969C938E9383
:101BA0008281938113969C938E931297E0E0F0E0EC
:101BB0008A819B81009719F0FE01EC01F9CFCE01DB
:101BC000029628813981820F931F209171033091F1
:101BD00072032817390769F4309729F410927403B7
:101BE0001092730302C013821282D0937203C093C7
:101BF0007103DF91CF910895A0E0B0E0E2E0FEE054
:101C00000C94E30EEC01CB01209719F40E94D50C43
:101C1000B8C0FE01E60FF71F9E0122503109E217FE
:101C2000F30708F4ACC0D9010D911C911197061768
:101C30001707B8F00530110508F49FC0A8014450FB
:101C400051094617570708F498C002501109061B9E
:101C5000170B019311936D937C93CF010E946D0D2F
:101C60008CC05B01A01AB10A4E01800E911EA0919A
:101C70007303B0917403612C712C60E070E01097D5
:101C800009F449C0A815B905C9F5ED90FC90119764
:101C9000670142E0C40ED11CCA14DB0478F147018D
:101CA0008A189B08640142E0C40ED11C1296BC90B5
:101CB00012971396AC91B5E0CB16D10440F0B282E6
:101CC000A38391828082D9018D939C9309C00E5F7A
:101CD0001F4F0E0D1F1DF90111830083EB2DFA2FED
:101CE0006115710531F0DB011396FC93EE931297A9
:101CF00044C0F0937403E09373033FC06D917C91F3
:101D000011976616770608F43B01BD0112960D90F7
:101D1000BC91A02DB4CF60917103709172036815CE
:101D20007905E9F468167906D0F4409100015091E4
:101D300001014115510541F44DB75EB760910401B1
:101D400070910501461B570BE417F507C0F4F0939B
:101D50007203E0937103F901918380830EC00E94A6
:101D6000D50C7C01009759F0A801BE010E94C60E57
:101D7000CE010E946D0DC70104C0CE0102C080E0FB
:101D800090E0CDB7DEB7EEE00C94FF0EFB01DC0176
:101D900002C001900D9241505040D8F70895FB01C8
:101DA000DC018D91019080190110D9F3990B0895F0
:101DB000FB01DC0101900D920020E1F708952F92C4
:101DC0003F924F925F926F927F928F929F92AF92CB
:101DD000BF92CF92DF92EF92FF920F931F93CF9318
:101DE000DF93CDB7DEB7CA1BDB0B0FB6F894DEBFAF
:101DF0000FBECDBF09942A88398848885F846E84D5
:101E00007D848C849B84AA84B984C884DF80EE801E
:101E1000FD800C811B81AA81B981CE0FD11D0FB627
:101E2000F894DEBF0FBECDBFED01089510E0C8EC01
:101E3000D0E004C0FE010E94D10C2296CA3CD1071A
:061E4000C9F7F894FFCF82
:101E460000007503800001000000400014005400EB
:101E56004543484F005249473100524947320043F3
:101E66004C53200057656220526164696F202D2013
:101E7600444C4E41005374617274696E672E2E2E67
:101E86000053485444005368757474696E6720643F
:101E96006F776E2E2E2E00476F6F6462796500563F
:101EA6004F4C2B00564F4C2D0054554E2B0054557D
:101EB6004E2D004D555445000000000098036B035D
:101EC600400348035B036A030000000084069E0982
:101ED60000FF0100010000FFFF0000010001FF00FC
:101EE6000D0A006E616E00696E66006F7666000010
:101EF6000000007E0A9E09000A190A0B0A5C0A0005
:00000001FF
