:100000000C9465000C948D000C948D000C948D0064
:100010000C948D000C948D000C948D000C948D002C
:100020000C948D000C948D000C948D000C948D001C
:100030000C948D000C948D000C948D000C948D000C
:100040000C9489070C948D000C9431090C9463096D
:100050000C948D000C948D000C948D000C948D00EC
:100060000C94E7040C948D000000000800020100CD
:100070000003040700000000000000000102040863
:100080001020408001020408102001020408102002
:10009000040404040404040402020202020203032E
:1000A00003030303000000002300260029000000D2
:1000B0000000250028002B0000000000240027007D
:1000C0002A001C0349049309510311241FBECFEFDA
:1000D000D8E0DEBFCDBF11E0A0E0B1E0E6EDFEE18B
:1000E00002C005900D92A43CB107D9F723E0A4EC1F
:1000F000B1E001C01D92AF37B207E1F710E0C8ECE4
:10010000D0E004C02297FE010E94190DC23CD10725
:10011000C9F70E94D7090C945E0F0C94000088ED7B
:1001200091E00E948D0B8EED91E00E948D0B84EE8C
:1001300091E00E948D0B8AEE91E00E948D0B81EF81
:1001400091E00C948D0BEF92FF920F931F93CF933E
:10015000DF93CDB7DEB72C970FB6F894DEBF0FBE96
:10016000CDBF67EA71E0CE0107960E94FB0B67EAFC
:1001700071E0CE0101960E94FB0B64E070E0CE01BD
:1001800007960E94BE0B60E470E0CE0107960E94C5
:10019000BE0BE090F501F090F60185E1E816F10460
:1001A00018F088E1E82EF12C00E010E00E151F0594
:1001B0008CF4B80181EF91E0043011050CF05FC0C0
:1001C0000E94F20C682FCE0107960E946C0C0F5F04
:1001D0001F4FECCF60E171E0CE0107960E94C20C88
:1001E000882331F060E171E08EED92E00E94360AE2
:1001F00065E171E0CE0107960E94C20C882339F0B8
:10020000BE016F5F7F4F8AEE91E00E94110C6AE1A0
:1002100071E0CE0107960E94C20C882339F0BE011E
:100220006F5F7F4F84EE91E00E94110C6FE171E0EF
:10023000CE0107960E94C20C882361F067EA71E044
:100240008AEE91E00E94280C67EA71E084EE91E06A
:100250000E94280CCE0101960E948D0BCE010796BC
:100260000E948D0B2C960FB6F894DEBF0FBECDBF4B
:10027000DF91CF911F910F91FF90EF9008950E9411
:10028000F20C682FCE010196A0CF6EED71E08AEEE0
:1002900091E00E94AF0C882341F068ED71E084EE9C
:1002A00091E00E94AF0C811128C06AEE71E08EEDE2
:1002B00091E00E94110C64EE71E088ED91E00E94E3
:1002C000110C89E092E00E94890640E060E089E03C
:1002D00092E00E9497066AEE71E089E092E00E9447
:1002E000240A41E060E089E092E00E94970664EE13
:1002F00071E089E092E00C94240A089560E084E0C3
:100300000E94990860E087E00E94990861E085E01A
:100310000E94990861E085E00E94D20889E092E09D
:100320000E942A0789E092E00E943D0689E092E05F
:100330000E94890626E040E855E260E070E08EED1C
:1003400092E00E942B0B66E470E081EF91E00E9446
:10035000BE0B60E170E08AEE91E00E94BE0B60E1AE
:1003600070E084EE91E00E94BE0B60E170E08EEDE3
:1003700091E00E94BE0B60E170E088ED91E00E9488
:10038000BE0B64E271E08AEE91E00E94280C65E306
:1003900071E084EE91E00E94280C67EA71E08EED36
:1003A00091E00E94280C67EA71E088ED91E00E94DC
:1003B000280C0E94450168EE73E080E090E00C9408
:1003C000020884E00E940809019719F585E00E945F
:1003D00008090197F1F461E471E08EED92E00E946A
:1003E000360A66E471E08AEE91E00E94280C67E527
:1003F00071E084EE91E00E94280C0E94450160E1CA
:1004000077E280E090E00E94020860E085E00C94D2
:10041000D208089580E092E00E94560780E092E0C2
:100420000E9452079093D7018093D6012091D20168
:100430003091D30128173907F4F46FE571E08EEDA0
:1004400092E00E94360A8091D6019091D701909354
:10045000D3018093D20181E090E09093C501809315
:10046000C4010E94D3076093C6017093C7018093B3
:10047000C8019093C9012091D6013091D701809194
:10048000D2019091D30128173907F4F464E671E0A2
:100490008EED92E00E94360A8091D6019091D701AC
:1004A0009093D3018093D20181E090E09093C501B5
:1004B0008093C4010E94D3076093C6017093C70163
:1004C0008093C8019093C901089587EF91E00E943D
:1004D000560787EF91E00E9452079093D5018093D1
:1004E000D4012091D0013091D1012817390774F43B
:1004F00069E671E08EED92E00E94360A8091D401A7
:100500009091D5019093D1018093D0012091D40195
:100510003091D5018091D0019091D10128173907F0
:1005200074F46EE671E08EED92E00E94360A8091DE
:10053000D4019091D5019093D1018093D001089579
:10054000CF93DF938091CA019091CB01892B49F51C
:10055000C0910601D0910701C130D10529F487E08F
:100560000E940809892B41F087E00E9408099093B6
:1005700007018093060115C00E94D3076093CC0148
:100580007093CD018093CE019093CF01D093CB0196
:10059000C093CA0163E771E08EED92E00E94360AD3
:1005A000E3CFDF91CF9108950F931F930E94D3075C
:1005B0000091CC011091CD012091CE013091CF015D
:1005C000601B710B820B930B6D327140810591059D
:1005D00030F08091CA019091CB01019729F10E94DE
:1005E000D3070091C6011091C7012091C801309135
:1005F000C901601B710B820B930B693B7B4081052A
:100600009105B8F08091C4019091C501019789F4DA
:100610001092C5011092C40168E771E08EED92E07E
:100620001F910F910C94360A1092CB011092CA01BF
:10063000D6CF1F910F91089522E040E167E289E053
:1006400092E00E94140649E050E06AE070E080E029
:1006500092E00E942C074BE050E06CE070E087EFE6
:1006600091E00E942C0767EA71E081EF91E00E941F
:10067000FB0B67EA71E08AEE91E00E94FB0B67EAF0
:1006800071E084EE91E00E94FB0B67EA71E08EED71
:1006900091E00E94FB0B67EA71E088ED91E00C9419
:1006A000FB0B0C948F00CF93C1E08EED92E00E9483
:1006B000480A892B79F08EED92E00E94610A8A3017
:1006C00019F4C093F001F1CF682F81EF91E00E94FF
:1006D0006C0CEBCFCF9108950E9453038091F001F1
:1006E000882351F00E94A30067EA71E081EF91E056
:1006F0000E94280C1092F0010E9445010E94D40231
:100700000E94E1010E940A020E9465020C94A0026C
:100710008091450290E020914602821B9109089544
:100720002091460280914502281750F4E22FF0E014
:10073000E95BFD4F808190E02F5F20934602089592
:100740008FEF9FEF0895E091460280914502E817F0
:1007500030F4F0E0E95BFD4F808190E008958FEF89
:100760009FEF08950895CF92DF92EF92FF920F933B
:100770001F93CF93DF937C01CB018A01209121024B
:10078000222389F0EB016B01C40ED51ECC15DD05CB
:1007900069F06991D701ED91FC910190F081E02D14
:1007A000C7010995F3CF642F0E94BE04C801DF91F1
:1007B000CF911F910F91FF90EF90DF90CF90089510
:1007C000CF93DF931F92CDB7DEB7698320912102CB
:1007D0002223D1F020912202203240F021E030E0AB
:1007E000FC013383228380E090E015C080912302D6
:1007F000E82FF0E0EC5DFD4F998190838F5F80934F
:1008000023028093220205C061E0CE0101960E947E
:10081000BE0481E090E00F90DF91CF910895FC013C
:100820001382128248EE53E060E070E04483558307
:100830006683778381E891E09183808308951092A5
:1008400046021092450210922302109222020C944A
:100850004D0481E0809321026093440210922302B0
:100860001092220208950F93062F21E04091220258
:1008700064E272E0809144020E946B0410922302B1
:1008800010922202109221020F91089561E00C94BF
:10089000330485E192E00C940F041092D40281E0BD
:1008A0008093D2021092D10261E082E10E94D208CC
:1008B00061E083E10E94D208E9EBF0E080818E7F65
:1008C000808380818D7F808388E48093B80085E475
:1008D0008093BC0008950F93413208F046C0909178
:1008E000D4029111FCCF92E09093D4020093D202F3
:1008F0009FEF909367021092AC024093AB02FB0112
:100900006DEA72E0DB019A2F961B941718F491910F
:100910009D93F9CF1092D3029091D302880F892B27
:100920008093D3028091D102813041F41092D102A0
:100930008091D3028093BB0085EC01C085EE80934B
:10094000BC00222321F08091D4028230E1F3809117
:1009500067028F3F61F080916702803251F0809191
:100960006702803341F483E007C081E005C080E086
:1009700003C082E001C084E00F910895613298F4D1
:100980002091D402243089F460938902FC018BE821
:1009900092E0DC012A2F281B261718F421912D93B1
:1009A000F9CF80E0089581E0089582E0089585ED13
:1009B0008093BC008091BC0084FDFCCF1092D402D7
:1009C000089585EC8093BC001092D40208951F9284
:1009D0000F920FB60F9211242F933F934F935F9373
:1009E0006F937F938F939F93AF93BF93EF93FF93F7
:1009F0008091B900887F803609F49CC068F5883200
:100A000009F45BC090F4803109F454C038F48823B1
:100A100009F4F5C0883009F44DC0F5C0883109F4F7
:100A20004CC0803209F45DC0EEC0803409F468C067
:100A300048F4803309F455C0883309F0E4C080934A
:100A40006702A8C0803509F44FC0883509F45DC03D
:100A5000883409F0D8C0D5C0883909F4C6C0A8F4D4
:100A6000883709F467C038F4883609F463C08037E2
:100A700009F460C0C8C0883809F4B7C0803909F4E7
:100A80005FC0803809F0BFC05BC0803B09F485C0FF
:100A900038F4803A09F466C0883A09F47EC0B3C0DD
:100AA000803C09F4A6C0883C09F4A3C0883B09F443
:100AB00089C0A9C08091D30210C09091AC028091EE
:100AC000AB02981770F5E091AC0281E08E0F809335
:100AD000AC02F0E0E355FD4F80818093BB0085ECD4
:100AE00085C0809367028DC0E091AC0281E08E0FDB
:100AF0008093AC028091BB00F0E0E355FD4F808312
:100B00009091AC028091AB026DC0E091AC0281E0AB
:100B10008E0F8093AC028091BB00F0E0E355FD4F57
:100B200080838091D20281116CC081E08093D102D8
:100B300084EA60C083E08093D40210926802CFCF31
:100B400080916802803208F050C0E091680281E034
:100B50008E0F809368028091BB00F0E0E759FD4F53
:100B60008083BDCF80916802803230F4E0916802CA
:100B7000F0E0E759FD4F10820E94D70460916802AF
:100B800070E0E091CD02F091CE0289E692E0099505
:100B9000109268020E94E10436C084E08093D4027F
:100BA00010928A0210928902E091CF02F091D00255
:100BB000099580918902811105C081E080938902A5
:100BC00010928B02E0918A0281E08E0F80938A025C
:100BD000F0E0E557FD4F80818093BB0090918A0241
:100BE00080918902981708F47ACF85E88093BC0039
:100BF0000AC085EC8093BC001092D40204C010920D
:100C000067020E94D704FF91EF91BF91AF919F912E
:100C10008F917F916F915F914F913F912F910F90A5
:100C20000FBE0F901F901895FC011382128281E96C
:100C300091E091838083648341872287138608959E
:100C40001F93CF93DF93EC01162F6C8185E192E027
:100C50000E942904E0911502F09116026B85612B28
:100C60000190F081E02D85E192E0099585E192E027
:100C7000DF91CF911F910C94460428E0FC0123875B
:100C800060E00C9420061F93CF93DF93EC01162FA6
:100C900064600E94200681E090E00E942A08612F93
:100CA0006B7FCE010E94200682E390E0DF91CF911E
:100CB0001F910C942A081F93CF93DF93EC01162FFA
:100CC0000E942006612FCE01DF91CF911F910C94DD
:100CD0004306EF92FF921F93CF93DF931F92CDB7FE
:100CE000DEB77C01162F607F642B49830E945B0670
:100CF000612F6295607F4981642BC7010F90DF915E
:100D0000CF911F91FF90EF900C945B0640E00C9404
:100D1000690661E00E94860680ED97E00C942A083F
:100D200062E00E94860680ED97E00C942A08CF933B
:100D3000DF93CDB7DEB728970FB6F894DEBF0FBEAE
:100D4000CDBF28E0E8E0F1E0DE01119601900D92C0
:100D50002A95E1F7FC012085241710F44FEF420F8C
:100D6000FE013196E40FF11DE40FF11D2081260FE5
:100D70002068622F28960FB6F894DEBF0FBECDBF55
:100D8000DF91CF910C948606FC016681262F2460AA
:100D900026836C600C94860641E00E94690680E020
:100DA00090E00895CF93DF93EC01423018F08D81ED
:100DB00088608D834887222329F0413019F48D8182
:100DC00084608D8362E370E080E090E00E9402081E
:100DD00060E3CE010E945B0665E070E080E090E099
:100DE0000E94020860E3CE010E945B0686E990E063
:100DF0000E942A0860E3CE010E945B0660E2CE01F9
:100E00000E945B066D816062CE010E94860684E0CE
:100E10008E83CE010E94C406CE010E94890682E024
:100E20008F8366E0CE010E948606CE01DF91CF91CE
:100E30000C949006CF93DF93EC0185E192E00E9441
:100E40001F041D8220E04A856985CE01DF91CF9184
:100E50000C94D2060C941A070F931F93CF93DF9331
:100E6000EC01162F042F688379834A835B8360E04B
:100E7000812F0E94990861E0812F0E94D20860E0D2
:100E8000802F0E94990861E0802F0E94D20883E0A1
:100E90008C831E821D8218861F82DF91CF911F9145
:100EA0000F910895FC018781908508951F93CF933A
:100EB000DF93EC0188810E940809182F8A810E9423
:100EC0000809880F991F812B2C812817F1F0E82F32
:100ED000FF27E7FDF09594E0290290011124E22B11
:100EE000F32BEB56FE4F90812D813E81290F311D52
:100EF00097FD3A953E832D83833031F435952795C0
:100F00003595279538872F838C83DF91CF911F915B
:100F100008951F920F920FB60F9211242F933F93B3
:100F20008F939F93AF93BF938091D6029091D702F6
:100F3000A091D802B091D9023091D50223E0230FBD
:100F40002D3720F40196A11DB11D05C026E8230F01
:100F50000296A11DB11D2093D5028093D6029093D5
:100F6000D702A093D802B093D9028091DA0290916F
:100F7000DB02A091DC02B091DD020196A11DB11D42
:100F80008093DA029093DB02A093DC02B093DD023F
:100F9000BF91AF919F918F913F912F910F900FBE75
:100FA0000F901F9018952FB7F8946091D60270910A
:100FB000D7028091D8029091D9022FBF08953FB7F0
:100FC000F8948091DA029091DB02A091DC02B0915A
:100FD000DD0226B5A89B05C02F3F19F00196A11D83
:100FE000B11D3FBF6627782F892F9A2F620F711D81
:100FF000811D911D42E0660F771F881F991F4A953A
:10100000D1F70895CF92DF92EF92FF92CF93DF93C3
:101010006B017C010E94DF07EB01C114D104E104E4
:10102000F10489F00E94F40C0E94DF076C1B7D0B19
:10103000683E734090F381E0C81AD108E108F108D6
:10104000C851DC4FEACFDF91CF91FF90EF90DF9056
:10105000CF9008958230910538F0880F991F880F3E
:10106000991F05970197F1F70895789484B58260E8
:1010700084BD84B5816084BD85B5826085BD85B53C
:10108000816085BDEEE6F0E0808181608083E1E8EB
:10109000F0E0108280818260808380818160808323
:1010A000E0E8F0E0808181608083E1EBF0E0808126
:1010B00084608083E0EBF0E0808181608083EAE7F8
:1010C000F0E0808184608083808182608083808181
:1010D000816080838081806880831092C100089540
:1010E000833081F028F4813099F08230A1F00895A6
:1010F0008730A9F08830B9F08430D1F48091800035
:101100008F7D03C0809180008F7780938000089549
:1011100084B58F7702C084B58F7D84BD089580919A
:10112000B0008F7703C08091B0008F7D8093B000B6
:101130000895CF93DF9390E0FC01E458FF4F249192
:10114000FC01E057FF4F8491882349F190E0880F1C
:10115000991FFC01E854FF4FA591B49182559F4F10
:10116000FC01C591D4919FB7611108C0F8948C918E
:10117000209582238C93888182230AC0623051F4A7
:10118000F8948C91322F309583238C938881822B15
:10119000888304C0F8948C91822B8C939FBFDF913D
:1011A000CF9108950F931F93CF93DF931F92CDB7E5
:1011B000DEB7282F30E0F901E859FF4F8491F9019B
:1011C000E458FF4F1491F901E057FF4F04910023B9
:1011D000C9F0882321F069830E9470086981E02F9B
:1011E000F0E0EE0FFF1FE255FF4FA591B4919FB7BE
:1011F000F8948C91611103C01095812301C0812B5B
:101200008C939FBF0F90DF91CF911F910F91089505
:10121000CF93DF93282F30E0F901E859FF4F8491F5
:10122000F901E458FF4FD491F901E057FF4FC49101
:10123000CC2391F081110E947008EC2FF0E0EE0FAA
:10124000FF1FEC55FF4FA591B4912C912D2381E008
:1012500090E021F480E002C080E090E0DF91CF9147
:1012600008951F920F920FB60F9211242F938F9310
:101270009F93EF93FF93E091EE02F091EF02808154
:10128000E091F402F091F50282FD12C0908180910C
:10129000F7028F5F8F732091F802821751F0E0916F
:1012A000F702F0E0E252FD4F958F8093F70201C004
:1012B0008081FF91EF919F918F912F910F900FBEA1
:1012C0000F901F9018951F920F920FB60F92112436
:1012D0002F933F934F935F936F937F938F939F933E
:1012E000AF93BF93EF93FF938EED92E00E94830A3A
:1012F000FF91EF91BF91AF919F918F917F916F91EE
:101300005F914F913F912F910F900FBE0F901F90C3
:1013100018958EED92E00E94480A21E0892B09F48D
:1013200020E0822F08951092E1021092E00288EEF0
:1013300093E0A0E0B0E08093E2029093E302A093F8
:10134000E402B093E50288EB91E09093DF02809392
:10135000DE0285EC90E09093EB028093EA0284EC4D
:1013600090E09093ED028093EC0280EC90E09093FB
:10137000EF028093EE0281EC90E09093F102809373
:10138000F00282EC90E09093F3028093F20286ECFC
:1013900090E09093F5028093F4021092F70210927D
:1013A000F8021092F9021092FA02089508950E942C
:1013B00035080E94D6090E947E01C5E7DAE00E9446
:1013C0006C032097E1F30E94750AF9CFCF92DF9268
:1013D000EF92FF920F931F93CF93DF936C017A01EB
:1013E000EB01E60EF71E00E010E0CE15DF0561F020
:1013F0006991D601ED91FC910190F081E02DC6013B
:101400000995080F191FF1CFC801DF91CF911F91E6
:101410000F91FF90EF90DF90CF90089561157105C7
:1014200081F0DB010D900020E9F7AD014150510939
:10143000461B570BDC01ED91FC910280F381E02DFE
:10144000099480E090E00895DC01ED91FC91DB01CE
:1014500014964D915C9115976D917C910280F3816A
:10146000E02D099465EA71E00C940E0A0F931F9326
:10147000CF93DF93EC010E940E0A8C01CE010E94F3
:10148000320A800F911FDF91CF911F910F91089524
:10149000FC01818D228D90E0805C9F4F821B910921
:1014A0008F7399270895FC01918D828D981731F0E3
:1014B000828DE80FF11D858D90E008958FEF9FEFED
:1014C0000895FC01918D828D981761F0828DDF0166
:1014D000A80FB11D5D968C91928D9F5F9F73928F27
:1014E00090E008958FEF9FEF089589E899E0892BA8
:1014F00049F083E593E0892B29F00E948909811145
:101500000C9453030895FC01848DDF01A80FB11DD5
:10151000A35ABF4F2C91848D90E001968F73992729
:10152000848FA689B7892C93A089B1898C91806416
:101530008C93938D848D981306C00288F389E02DD7
:1015400080818F7D80830895CF93DF93EC01888D18
:101550008823C9F0EA89FB89808185FD05C0A889B7
:10156000B9898C9186FD0FC00FB607FCF5CF80813D
:1015700085FFF2CFA889B9898C9185FFEDCFCE0187
:101580000E94830AE7CFDF91CF910895CF92DF9237
:10159000FF920F931F93CF93DF931F92CDB7DEB7C8
:1015A0006C0181E0D60158968C9358975B969C917C
:1015B0005B975C968C915C97981307C05096ED9161
:1015C000FC915197808185FD2EC0F601038D10E0BE
:1015D0000F5F1F4F0F731127F02EF601848DF81245
:1015E00011C00FB607FCF9CFD6015096ED91FC91D2
:1015F0005197808185FFF1CFC60169830E94830ADC
:101600006981EBCF838DE80FF11DE35AFF4F6083B3
:10161000D6015B960C935B975296ED91FC91539794
:10162000808180620CC0D6015696ED91FC9157974F
:1016300060835096ED91FC91519780818064808306
:1016400081E090E00F90DF91CF911F910F91FF907B
:10165000DF90CF900895BF92CF92DF92EF92FF92EA
:10166000CF93DF93EC016A017B01B22EE889F989FF
:1016700082E08083411581EE580761057105A1F074
:1016800060E079E08DE390E0A70196010E94F50CFF
:1016900021503109410951095695479537952795AC
:1016A000211580E1380798F0E889F989108260E80F
:1016B00074E88EE190E0A70196010E94F50C21509C
:1016C0003109410951095695479537952795EC857C
:1016D000FD853083EE85FF852083188EEC89FD899A
:1016E000B082EA89FB89808180618083EA89FB89F5
:1016F000808188608083EA89FB898081806880831B
:10170000EA89FB8980818F7D8083DF91CF91FF9073
:10171000EF90DF90CF90BF900895FC018081918180
:101720000C94B50DCF93DF93EC01888199810097DC
:1017300011F00E94B50D198218821D821C821B8235
:101740001A82DF91CF9108950F931F93CF93DF9368
:10175000EC018B016F5F7F4F888199810E94440E5D
:10176000009731F0998388831B830A8381E001C04D
:1017700080E0DF91CF911F910F910895CF93DF9378
:10178000EC0188819981892B29F08A819B818617B8
:10179000970760F4CE010E94A40B882341F08C814E
:1017A0009D81892B19F4E881F981108281E0DF9114
:1017B000CF910895EF92FF920F931F93CF93DF93F2
:1017C000EC017B018A01BA010E94BE0B811104C0A9
:1017D000CE010E94920B07C01D830C83B701888144
:1017E00099810E94200FCE01DF91CF911F910F911F
:1017F000FF90EF900895FC011182108213821282F3
:10180000158214826115710559F0FB0101900020C9
:10181000E9F7AF0141505109461B570B0C94DA0B05
:101820000895CF93DF93EC01FB018617970761F0D2
:10183000608171816115710529F0448155810E9493
:10184000DA0B02C00E94920BCE01DF91CF91089576
:10185000CF93DF93EC016115710561F0FB010190FD
:101860000020E9F7AF0141505109461B570B0E9478
:10187000DA0B02C00E94920BCE01DF91CF91089546
:10188000EF92FF920F931F93CF93DF93EC017B01B5
:101890000C811D816115710511F480E016C04115A0
:1018A000510591F0040F151FB8010E94BE0B88234B
:1018B000A1F3288139818C819D81B701820F931F0B
:1018C0000E94200F1D830C8381E0DF91CF911F9137
:1018D0000F91FF90EF900895CF93DF9300D0CDB795
:1018E000DEB769831A8241E050E0BE016F5F7F4F2F
:1018F0000E94400C0F900F90DF91CF910895CF93ED
:10190000DF93DC01ED91FC91EB01A881B981309767
:1019100011F01097C9F4109759F0EB012C813D811B
:10192000232B31F08C9190E091958195910914C011
:10193000309781F0DC0114968D919C911597892B3D
:1019400049F0808190E008C0BD01CF01DF91CF91C7
:101950000C94170F80E090E0DF91CF910895FC0187
:1019600044815581FB01248135814217530741F49D
:101970000E947F0C21E0892B09F020E0822F08953E
:1019800080E00895FC0124813581232B31F421E08E
:1019900061157105A1F0FB0108C0FC0180819181F6
:1019A0006115710531F421E0FC018081882339F053
:1019B00005C00E94170F21E0892B09F020E0822F3B
:1019C0000895FC01248135816217730748F48081F2
:1019D0009181009729F0FC01E60FF71F808108959F
:1019E00080E008950C94E10C0895A1E21A2EAA1B40
:1019F000BB1BFD010DC0AA1FBB1FEE1FFF1FA217BF
:101A0000B307E407F50720F0A21BB30BE40BF50BBB
:101A1000661F771F881F991F1A9469F76095709544
:101A2000809590959B01AC01BD01CF010895EE0F0B
:101A3000FF1F0590F491E02D0994CF93DF9382303E
:101A4000910510F482E090E0E0917D03F0917E0337
:101A500020E030E0A0E0B0E0309739F140815181E2
:101A600048175907B8F04817590771F482819381D4
:101A7000109729F013969C938E9312972CC09093F5
:101A80007E0380937D0327C02115310531F0421775
:101A9000530718F0A901DB0101C0EF019A01BD0154
:101AA000DF010280F381E02DD7CF21153105F9F058
:101AB000281B390B2430310580F48A819B81611504
:101AC000710521F0FB019383828304C090937E0310
:101AD00080937D03FE01329644C0FE01E20FF31FA6
:101AE0008193919322503109398328833AC0209100
:101AF0007B0330917C03232B41F420910201309130
:101B0000030130937C0320937B03209100013091EB
:101B100001012115310541F42DB73EB74091040173
:101B200050910501241B350BE0917B03F0917C0360
:101B3000E217F307A0F42E1B3F0B2817390778F0A4
:101B4000AC014E5F5F4F2417350748F04E0F5F1F03
:101B500050937C0340937B038193919302C0E0E018
:101B6000F0E0CF01DF91CF910895CF93DF930097FD
:101B700009F487C0FC01329713821282C0917D0361
:101B8000D0917E03209781F420813181280F391F65
:101B900080917B0390917C038217930779F5F093F2
:101BA0007C03E0937B036DC0DE0120E030E0AE17E4
:101BB000BF0750F412964D915C9113979D0141150A
:101BC000510509F1DA01F3CFB383A283408151813A
:101BD000840F951F8A179B0771F48D919C91119723
:101BE000840F951F02969183808312968D919C910C
:101BF0001397938382832115310529F4F0937E0393
:101C0000E0937D033EC0D9011396FC93EE931297A7
:101C10004D915D91A40FB51FEA17FB0779F4808100
:101C20009181840F951F0296D90111969C938E93F2
:101C30008281938113969C938E931297E0E0F0E05B
:101C40008A819B81009719F0FE01EC01F9CFCE014A
:101C5000029628813981820F931F20917B03309156
:101C60007C032817390769F4309729F410927E0312
:101C700010927D0302C013821282D0937C03C09322
:101C80007B03DF91CF910895A0E0B0E0EAE4FEE0AD
:101C90000C942B0FEC01CB01209719F40E941D0D21
:101CA000B8C0FE01E60FF71F9E0122503109E2176E
:101CB000F30708F4ACC0D9010D911C9111970617D8
:101CC0001707B8F00530110508F49FC0A80144506B
:101CD00051094617570708F498C002501109061B0E
:101CE000170B019311936D937C93CF010E94B50D57
:101CF0008CC05B01A01AB10A4E01800E911EA0910A
:101D00007D03B0917E03612C712C60E070E0109730
:101D100009F449C0A815B905C9F5ED90FC901197D3
:101D2000670142E0C40ED11CCA14DB0478F14701FC
:101D30008A189B08640142E0C40ED11C1296BC9024
:101D400012971396AC91B5E0CB16D10440F0B28255
:101D5000A38391828082D9018D939C9309C00E5FE9
:101D60001F4F0E0D1F1DF90111830083EB2DFA2F5C
:101D70006115710531F0DB011396FC93EE93129718
:101D800044C0F0937E03E0937D033FC06D917C914E
:101D900011976616770608F43B01BD0112960D9067
:101DA000BC91A02DB4CF60917B0370917C0368152A
:101DB0007905E9F468167906D0F440910001509154
:101DC00001014115510541F44DB75EB76091040121
:101DD00070910501461B570BE417F507C0F4F0930B
:101DE0007C03E0937B03F901918380830EC00E9402
:101DF0001D0D7C01009759F0A801BE010E940E0F35
:101E0000CE010E94B50DC70104C0CE0102C080E022
:101E100090E0CDB7DEB7EEE00C94470FFB01DC019C
:101E200002C001900D9241505040D8F70895FB0137
:101E3000DC018D91019080190110D9F3990B08955F
:101E4000FB01DC0101900D920020E1F708952F9233
:101E50003F924F925F926F927F928F929F92AF923A
:101E6000BF92CF92DF92EF92FF920F931F93CF9387
:101E7000DF93CDB7DEB7CA1BDB0B0FB6F894DEBF1E
:101E80000FBECDBF09942A88398848885F846E8444
:101E90007D848C849B84AA84B984C884DF80EE808E
:101EA000FD800C811B81AA81B981CE0FD11D0FB697
:101EB000F894DEBF0FBECDBFED01089510E0C8EC71
:101EC000D0E004C0FE010E94190D2296CA3CD10741
:061ED000C9F7F894FFCFF2
:101ED60000007F0380000100000040001400540051
:101EE6004543484F00524947310052494732004363
:101EF6004C53200057656220526164696F202D2083
:101F0600444C4E41005374617274696E672E2E2ED6
:101F16000053485444005368757474696E672064AE
:101F26006F776E2E2E2E00476F6F646279650056AE
:101F36004F4C2B00564F4C2D0054554E2B005455EC
:101F46004E2D004D5554450053594E430000000098
:101F560000E003B30388039003A303B20300000069
:101F660000CC06E60900FF0100010000FFFF0000AB
:101F7600010001FF000D0A006E616E00696E6600C9
:101F86006F76660000000000C60AE609480A610A84
:041F9600530AA40A3C
:00000001FF
