:100000000C9465000C948D000C948D000C948D0064
:100010000C948D000C948D000C948D000C948D002C
:100020000C948D000C948D000C948D000C948D001C
:100030000C948D000C948D000C948D000C948D000C
:100040000C940B070C948D000C94A7080C94D90801
:100050000C948D000C948D000C948D000C948D00EC
:100060000C9469040C948D0000000008000201004B
:100070000003040700000000000000000102040863
:100080001020408001020408102001020408102002
:10009000040404040404040402020202020203032E
:1000A00003030303000000002300260029000000D2
:1000B0000000250028002B0000000000240027007D
:1000C0002A00A002CB030909D50211241FBECFEFDD
:1000D000D8E0DEBFCDBF11E0A0E0B1E0E2ECFDE191
:1000E00002C005900D92A03CB107D9F723E0A0EC27
:1000F000B1E001C01D92AF36B207E1F710E0C8ECE5
:10010000D0E004C02297FE010E948F0CC23CD107B0
:10011000C9F70E944D090C94D40E0C94000088EC91
:1001200091E00E94030B8EEC91E00E94030B84EDA2
:1001300091E00E94030B8AED91E00E94030B81EE97
:1001400091E00C94030BEF92FF920F931F93CF93C8
:10015000DF93CDB7DEB72C970FB6F894DEBF0FBE96
:10016000CDBF62EA71E0CE0107960E94710B62EA90
:1001700071E0CE0101960E94710B64E070E0CE0147
:1001800007960E94340B60E470E0CE0107960E944F
:10019000340BE090E501F090E60189E1E816F10406
:1001A00018F088E1E82EF12C00E010E00E151F0594
:1001B0008CF4B80181EE91E0043011050CF05FC0C1
:1001C0000E94680C682FCE0107960E94E20B0F5F19
:1001D0001F4FECCF60E171E0CE0107960E94380C12
:1001E000882331F060E171E08EEC92E00E94AC096E
:1001F00065E171E0CE0107960E94380C882339F042
:10020000BE016F5F7F4F8AED91E00E94870B6AE12C
:1002100071E0CE0107960E94380C882339F0BE01A8
:100220006F5F7F4F84ED91E00E94870B6FE171E07B
:10023000CE0107960E94380C882361F062EA71E0D3
:100240008AED91E00E949E0B62EA71E084ED91E0FC
:100250000E949E0BCE0101960E94030BCE010796D1
:100260000E94030B2C960FB6F894DEBF0FBECDBFD5
:10027000DF91CF911F910F91FF90EF9008950E9411
:10028000680C682FCE010196A0CF6EEC71E08AED6C
:1002900091E00E94250C882341F068EC71E084ED28
:1002A00091E00E94250C811128C06AED71E08EEC6E
:1002B00091E00E94870B64ED71E088EC91E00E9470
:1002C000870B89EF91E00E940B0640E060E089EF28
:1002D00091E00E9419066AED71E089EF91E00E94B9
:1002E0009A0941E060E089EF91E00E94190664ED0F
:1002F00071E089EF91E00C949A09089560E084E040
:100300000E940F0860E088E00E940F0861E085E02D
:100310000E940F0861E085E00E94480889EF91E0A3
:100320000E94AC0689EF91E00E94BF0589EF91E041
:100330000E940B0626E040E855E260E070E08EEC9B
:1003400092E00E94A10A66E470E081EE91E00E94D2
:10035000340B60E170E08AED91E00E94340B60E1C3
:1003600070E084ED91E00E94340B60E170E08EEC6F
:1003700091E00E94340B60E170E088EC91E00E9413
:10038000340B64E271E08AED91E00E949E0B65E31C
:1003900071E084ED91E00E949E0B62EA71E08EECC8
:1003A00091E00E949E0B62EA71E088EC91E00E946D
:1003B0009E0B0E94450168EE73E080E090E00C9493
:1003C000780784E00E947E08019719F585E00E9475
:1003D0007E080197F1F461E471E08EEC92E00E94F6
:1003E000AC0966E471E08AED91E00E949E0B67E53E
:1003F00071E084ED91E00E949E0B0E94450160E156
:1004000077E280E090E00E94780760E085E00C945D
:100410004808089580EF91E00E94D80680EF91E0AF
:100420000E94D4069093C7018093C6012091C20117
:100430003091C3012817390774F46FE571E08EEC31
:1004400092E00E94AC098091C6019091C7019093FF
:10045000C3018093C2012091C6013091C7018091F0
:10046000C2019091C3012817390774F464E671E062
:100470008EEC92E00E94AC098091C6019091C70178
:100480009093C3018093C201089587EE91E00E948A
:10049000D80687EE91E00E94D4069093C501809320
:1004A000C4012091C0013091C1012817390774F4AB
:1004B00069E671E08EEC92E00E94AC098091C40183
:1004C0009091C5019093C1018093C0012091C40116
:1004D0003091C5018091C0019091C1012817390761
:1004E00074F46EE671E08EEC92E00E94AC098091AB
:1004F000C4019091C5019093C1018093C0010895FA
:100500008091060190910701019729F488E00E94EB
:100510007E08892B41F088E00E947E0890930701B5
:1005200080930601089563E771E08EEC92E00E94EB
:10053000AC096AE070E080E090E00E947807EBCFC1
:1005400022E040E167E289EF91E00E94960549E0F0
:1005500050E06AE070E080EF91E00E94AE064BE070
:1005600050E06CE070E087EE91E00E94AE0662EA37
:1005700071E081EE91E00E94710B62EA71E08AED18
:1005800091E00E94710B62EA71E084ED91E00E94BB
:10059000710B62EA71E08EEC91E00E94710B62EAED
:1005A00071E088EC91E00C94710B0C948F00CF9368
:1005B000C1E08EEC92E00E94BE09892B79F08EECAE
:1005C00092E00E94D7098A3019F4C093E001F1CF7C
:1005D000682F81EE91E00E94E20BEBCFCF9108955E
:1005E0000E94D7028091E001882351F00E94A3006D
:1005F00062EA71E081EE91E00E949E0B1092E001B0
:100600000E9445010E94E1010E940A020E944502E7
:100610000C9480028091350290E020913602821B7A
:10062000910908952091360280913502281750F4DF
:10063000E22FF0E0E95CFD4F808190E02F5F209396
:10064000360208958FEF9FEF0895E0913602809172
:100650003502E81730F4F0E0E95CFD4F808190E06E
:1006600008958FEF9FEF08950895CF92DF92EF9254
:10067000FF920F931F93CF93DF937C01CB018A01ED
:1006800020911102222389F0EB016B01C40ED51ECB
:10069000CC15DD0569F06991D701ED91FC910190D0
:1006A000F081E02DC7010995F3CF642F0E9440042B
:1006B000C801DF91CF911F910F91FF90EF90DF90D4
:1006C000CF900895CF93DF931F92CDB7DEB76983A4
:1006D000209111022223D1F020911202203240F009
:1006E00021E030E0FC013383228380E090E015C0FC
:1006F00080911302E82FF0E0EC5EFD4F998190832A
:100700008F5F809313028093120205C061E0CE01D7
:1007100001960E94400481E090E00F90DF91CF911C
:100720000895FC011382128248EE53E060E070E00D
:1007300044835583668377838CE791E0918380833C
:100740000895109236021092350210921302109200
:1007500012020C94CF0381E0809311026093340263
:10076000109213021092120208950F93062F21E0A7
:100770004091120264E172E0809134020E94ED0324
:100780001092130210921202109211020F9108950A
:1007900061E00C94B50385E092E00C949103109213
:1007A000C40281E08093C2021092C10261E082E142
:1007B0000E94480861E083E10E944808E9EBF0E00C
:1007C00080818E7F808380818D7F808388E4809389
:1007D000B80085E48093BC0008950F93413208F07F
:1007E00046C09091C4029111FCCF92E09093C40254
:1007F0000093C2029FEF9093570210929C02409385
:100800009B02FB016DE972E0DB019A2F961B9417A6
:1008100018F491919D93F9CF1092C3029091C30265
:10082000880F892B8093C3028091C102813041F4EB
:100830001092C1028091C3028093BB0085EC01C07D
:1008400085EE8093BC00222321F08091C402823087
:10085000E1F3809157028F3F61F08091570280321F
:1008600051F080915702803341F483E007C081E06A
:1008700005C080E003C082E001C084E00F910895CC
:10088000613298F42091C402243089F46093790293
:10089000FC018BE792E0DC012A2F281B261718F4B5
:1008A00021912D93F9CF80E0089581E0089582E0B1
:1008B000089585ED8093BC008091BC0084FDFCCF41
:1008C0001092C402089585EC8093BC001092C4027B
:1008D00008951F920F920FB60F9211242F933F93FA
:1008E0004F935F936F937F938F939F93AF93BF9338
:1008F000EF93FF938091B900887F803609F49CC004
:1009000068F5883209F45BC090F4803109F454C072
:1009100038F4882309F4F5C0883009F44DC0F5C0D7
:10092000883109F44CC0803209F45DC0EEC08034D7
:1009300009F468C048F4803309F455C0883309F0DD
:10094000E4C080935702A8C0803509F44FC08835B1
:1009500009F45DC0883409F0D8C0D5C0883909F4DD
:10096000C6C0A8F4883709F467C038F4883609F49B
:1009700063C0803709F460C0C8C0883809F4B7C0C4
:10098000803909F45FC0803809F0BFC05BC0803B8C
:1009900009F485C038F4803A09F466C0883A09F44D
:1009A0007EC0B3C0803C09F4A6C0883C09F4A3C053
:1009B000883B09F489C0A9C08091C30210C09091FE
:1009C0009C0280919B02981770F5E0919C0281E057
:1009D0008E0F80939C02F0E0E356FD4F8081809360
:1009E000BB0085EC85C0809357028DC0E0919C02CE
:1009F00081E08E0F80939C028091BB00F0E0E35673
:100A0000FD4F808390919C0280919B026DC0E0918C
:100A10009C0281E08E0F80939C028091BB00F0E0ED
:100A2000E356FD4F80838091C20281116CC081E04A
:100A30008093C10284EA60C083E08093C402109274
:100A40005802CFCF80915802803208F050C0E09118
:100A5000580281E08E0F809358028091BB00F0E035
:100A6000E75AFD4F8083BDCF80915802803230F429
:100A7000E0915802F0E0E75AFD4F10820E945904BD
:100A80006091580270E0E091BD02F091BE0289E5EC
:100A900092E00995109258020E94630436C084E0E7
:100AA0008093C40210927A0210927902E091BF0200
:100AB000F091C002099580917902811105C081E011
:100AC0008093790210927B02E0917A0281E08E0F8E
:100AD00080937A02F0E0E558FD4F80818093BB005F
:100AE00090917A0280917902981708F47ACF85E87C
:100AF0008093BC000AC085EC8093BC001092C402B5
:100B000004C0109257020E945904FF91EF91BF91C7
:100B1000AF919F918F917F916F915F914F913F9195
:100B20002F910F900FBE0F901F901895FC0113820C
:100B300012828CE891E091838083648341872287CD
:100B4000138608951F93CF93DF93EC01162F6C81CA
:100B500085E092E00E94AB03E0910502F09106026D
:100B60006B85612B0190F081E02D85E092E0099585
:100B700085E092E0DF91CF911F910C94C80328E0AB
:100B8000FC01238760E00C94A2051F93CF93DF93B1
:100B9000EC01162F64600E94A20581E090E00E94A3
:100BA000A007612F6B7FCE010E94A20582E390E037
:100BB000DF91CF911F910C94A0071F93CF93DF93E8
:100BC000EC01162F0E94A205612FCE01DF91CF917B
:100BD0001F910C94C505EF92FF921F93CF93DF9363
:100BE0001F92CDB7DEB77C01162F607F642B49833F
:100BF0000E94DD05612F6295607F4981642BC701EA
:100C00000F90DF91CF911F91FF90EF900C94DD0535
:100C100040E00C94EB0561E00E94080680ED97E04F
:100C20000C94A00762E00E94080680ED97E00C9407
:100C3000A007CF93DF93CDB7DEB728970FB6F89410
:100C4000DEBF0FBECDBF28E0E8E0F1E0DE01119687
:100C500001900D922A95E1F7FC012085241710F4EC
:100C60004FEF420FFE013196E40FF11DE40FF11D2D
:100C70002081260F2068622F28960FB6F894DEBFD9
:100C80000FBECDBFDF91CF910C940806FC016681A9
:100C9000262F246026836C600C94080641E00E9495
:100CA000EB0580E090E00895CF93DF93EC014230B4
:100CB00018F08D8188608D834887222329F0413088
:100CC00019F48D8184608D8362E370E080E090E0B0
:100CD0000E94780760E3CE010E94DD0565E070E0C8
:100CE00080E090E00E94780760E3CE010E94DD057D
:100CF00086E990E00E94A00760E3CE010E94DD0536
:100D000060E2CE010E94DD056D816062CE010E942D
:100D1000080684E08E83CE010E944606CE010E9422
:100D20000B0682E08F8366E0CE010E940806CE01AA
:100D3000DF91CF910C941206CF93DF93EC0185E005
:100D400092E00E94A1031D8220E04A856985CE01C0
:100D5000DF91CF910C9454060C949C060F931F9333
:100D6000CF93DF93EC01162F042F688379834A8396
:100D70005B8360E0812F0E940F0861E0812F0E9459
:100D8000480860E0802F0E940F0861E0802F0E94D9
:100D9000480883E08C831E821D8218861F82DF91A3
:100DA000CF911F910F910895FC018781908508953F
:100DB0001F93CF93DF93EC0188810E947E08182F48
:100DC0008A810E947E08880F991F812B2C81281709
:100DD000F1F0E82FFF27E7FDF09594E0290290015C
:100DE0001124E22BF32BE057FE4F90812D813E81A1
:100DF000290F311D97FD3A953E832D83833031F4C1
:100E0000359527953595279538872F838C83DF91E6
:100E1000CF911F9108951F920F920FB60F92112438
:100E20002F933F938F939F93AF93BF938091C6026D
:100E30009091C702A091C802B091C9023091C50239
:100E400023E0230F2D3720F40196A11DB11D05C00D
:100E500026E8230F0296A11DB11D2093C5028093A1
:100E6000C6029093C702A093C802B093C9028091B2
:100E7000CA029091CB02A091CC02B091CD02019612
:100E8000A11DB11D8093CA029093CB02A093CC0206
:100E9000B093CD02BF91AF919F918F913F912F91D0
:100EA0000F900FBE0F901F9018953FB7F894809148
:100EB000CA029091CB02A091CC02B091CD0226B58E
:100EC000A89B05C02F3F19F00196A11DB11D3FBF82
:100ED0006627782F892F9A2F620F711D811D911D12
:100EE00042E0660F771F881F991F4A95D1F7089532
:100EF000CF92DF92EF92FF92CF93DF936B017C0151
:100F00000E945507EB01C114D104E104F10489F0FA
:100F10000E946A0C0E9455076C1B7D0B683E734053
:100F200090F381E0C81AD108E108F108C851DC4FFC
:100F3000EACFDF91CF91FF90EF90DF90CF900895AF
:100F40008230910538F0880F991F880F991F0597F7
:100F50000197F1F70895789484B5826084BD84B5D3
:100F6000816084BD85B5826085BD85B5816085BDA4
:100F7000EEE6F0E0808181608083E1E8F0E01082BD
:100F8000808182608083808181608083E0E8F0E0FE
:100F9000808181608083E1EBF0E0808184608083E8
:100FA000E0EBF0E0808181608083EAE7F0E080811F
:100FB000846080838081826080838081816080837F
:100FC0008081806880831092C1000895833081F011
:100FD00028F4813099F08230A1F008958730A9F08B
:100FE0008830B9F08430D1F4809180008F7D03C0C7
:100FF000809180008F7780938000089584B58F77EB
:1010000002C084B58F7D84BD08958091B0008F7734
:1010100003C08091B0008F7D8093B0000895CF937E
:10102000DF9390E0FC01E458FF4F2491FC01E0576E
:10103000FF4F8491882349F190E0880F991FFC01AC
:10104000E854FF4FA591B49182559F4FFC01C59183
:10105000D4919FB7611108C0F8948C912095822398
:101060008C93888182230AC0623051F4F8948C9169
:10107000322F309583238C938881822B888304C000
:10108000F8948C91822B8C939FBFDF91CF91089520
:101090000F931F93CF93DF931F92CDB7DEB7282F07
:1010A00030E0F901E859FF4F8491F901E458FF4F0E
:1010B0001491F901E057FF4F04910023C9F08823F0
:1010C00021F069830E94E6076981E02FF0E0EE0FCE
:1010D000FF1FE255FF4FA591B4919FB7F8948C91F3
:1010E000611103C01095812301C0812B8C939FBF98
:1010F0000F90DF91CF911F910F910895CF93DF93C0
:10110000282F30E0F901E859FF4F8491F901E458A4
:10111000FF4FD491F901E057FF4FC491CC2391F0D8
:1011200081110E94E607EC2FF0E0EE0FFF1FEC5557
:10113000FF4FA591B4912C912D2381E090E021F4F3
:1011400080E002C080E090E0DF91CF9108951F928F
:101150000F920FB60F9211242F938F939F93EF93BB
:10116000FF93E091DE02F091DF028081E091E402E2
:10117000F091E50282FD12C090818091E7028F5FBD
:101180008F732091E802821751F0E091E702F0E0BE
:10119000E253FD4F958F8093E70201C08081FF915C
:1011A000EF919F918F912F910F900FBE0F901F90F5
:1011B00018951F920F920FB60F9211242F933F9301
:1011C0004F935F936F937F938F939F93AF93BF934F
:1011D000EF93FF938EEC92E00E94F909FF91EF915B
:1011E000BF91AF919F918F917F916F915F914F913F
:1011F0003F912F910F900FBE0F901F9018958EEC7E
:1012000092E00E94BE0921E0892B09F420E0822FA0
:1012100008951092D1021092D00288EE93E0A0E0DF
:10122000B0E08093D2029093D302A093D402B09303
:10123000D50283EB91E09093CF028093CE0285ECB0
:1012400090E09093DB028093DA0284EC90E090933C
:10125000DD028093DC0280EC90E09093DF028093CB
:10126000DE0281EC90E09093E1028093E00282EC58
:1012700090E09093E3028093E20286EC90E09093FA
:10128000E5028093E4021092E7021092E8021092C5
:10129000E9021092EA02089508950E94AB070E94A5
:1012A0004C090E947E01CBEED9E00E94F00220970B
:1012B000E1F30E94EB09F9CFCF92DF92EF92FF9218
:1012C0000F931F93CF93DF936C017A01EB01E60E2E
:1012D000F71E00E010E0CE15DF0561F06991D60140
:1012E000ED91FC910190F081E02DC6010995080F68
:1012F000191FF1CFC801DF91CF911F910F91FF907E
:10130000EF90DF90CF9008956115710581F0DB01BA
:101310000D900020E9F7AD0141505109461B570BD4
:10132000DC01ED91FC910280F381E02D099480E0D5
:1013300090E00895DC01ED91FC91DB0114964D9154
:101340005C9115976D917C910280F381E02D099459
:1013500060EA71E00C9484090F931F93CF93DF939D
:10136000EC010E9484098C01CE010E94A809800F23
:10137000911FDF91CF911F910F910895FC01818DF5
:10138000228D90E0805C9F4F821B91098F7399277B
:101390000895FC01918D828D981731F0828DE80FB0
:1013A000F11D858D90E008958FEF9FEF0895FC016A
:1013B000918D828D981761F0828DDF01A80FB11D8C
:1013C0005D968C91928D9F5F9F73928F90E00895B0
:1013D0008FEF9FEF08958FEF98E0892B49F087ED0D
:1013E00092E0892B29F00E94FF0881110C94D7020A
:1013F0000895FC01848DDF01A80FB11DA35ABF4FD2
:101400002C91848D90E001968F739927848FA68903
:10141000B7892C93A089B1898C9180648C93938D2A
:10142000848D981306C00288F389E02D80818F7D1A
:1014300080830895CF93DF93EC01888D8823C9F0D2
:10144000EA89FB89808185FD05C0A889B9898C91CD
:1014500086FD0FC00FB607FCF5CF808185FFF2CF68
:10146000A889B9898C9185FFEDCFCE010E94F90939
:10147000E7CFDF91CF910895CF92DF92FF920F9344
:101480001F93CF93DF931F92CDB7DEB76C0181E03E
:10149000D60158968C9358975B969C915B975C9677
:1014A0008C915C97981307C05096ED91FC915197E1
:1014B000808185FD2EC0F601038D10E00F5F1F4F68
:1014C0000F731127F02EF601848DF81211C00FB69C
:1014D00007FCF9CFD6015096ED91FC915197808190
:1014E00085FFF1CFC60169830E94F9096981EBCFBD
:1014F000838DE80FF11DE35AFF4F6083D6015B96A1
:101500000C935B975296ED91FC915397808180628A
:101510000CC0D6015696ED91FC915797608350967A
:10152000ED91FC91519780818064808381E090E00F
:101530000F90DF91CF911F910F91FF90DF90CF908F
:101540000895BF92CF92DF92EF92FF92CF93DF93F5
:10155000EC016A017B01B22EE889F98982E080837F
:10156000411581EE580761057105A1F060E079E051
:101570008DE390E0A70196010E946B0C2150310988
:10158000410951095695479537952795211580E1D1
:10159000380798F0E889F989108260E874E88EE1EC
:1015A00090E0A70196010E946B0C2150310941097E
:1015B00051095695479537952795EC85FD853083DC
:1015C000EE85FF852083188EEC89FD89B082EA893B
:1015D000FB89808180618083EA89FB8980818860C2
:1015E0008083EA89FB89808180688083EA89FB891E
:1015F00080818F7D8083DF91CF91FF90EF90DF908E
:10160000CF90BF900895FC01808191810C942B0DA7
:10161000CF93DF93EC0188819981009711F00E94AC
:101620002B0D198218821D821C821B821A82DF9167
:10163000CF9108950F931F93CF93DF93EC018B010C
:101640006F5F7F4F888199810E94BA0D009731F0BA
:10165000998388831B830A8381E001C080E0DF9146
:10166000CF911F910F910895CF93DF93EC01888163
:101670009981892B29F08A819B818617970760F4CD
:10168000CE010E941A0B882341F08C819D81892B09
:1016900019F4E881F981108281E0DF91CF910895FA
:1016A000EF92FF920F931F93CF93DF93EC017B0197
:1016B0008A01BA010E94340B811104C0CE010E943C
:1016C000080B07C01D830C83B701888199810E9494
:1016D000960ECE01DF91CF911F910F91FF90EF9069
:1016E0000895FC01118210821382128215821482E5
:1016F0006115710559F0FB0101900020E9F7AF0178
:1017000041505109461B570B0C94500B0895CF9331
:10171000DF93EC01FB018617970761F0608171810F
:101720006115710529F0448155810E94500B02C05A
:101730000E94080BCE01DF91CF910895CF93DF93E4
:10174000EC016115710561F0FB0101900020E9F7E2
:10175000AF0141505109461B570B0E94500B02C06C
:101760000E94080BCE01DF91CF910895EF92FF9276
:101770000F931F93CF93DF93EC017B010C811D81AD
:101780006115710511F480E016C04115510591F005
:10179000040F151FB8010E94340B8823A1F3288180
:1017A00039818C819D81B701820F931F0E94960E13
:1017B0001D830C8381E0DF91CF911F910F91FF90EA
:1017C000EF900895CF93DF9300D0CDB7DEB7698354
:1017D0001A8241E050E0BE016F5F7F4F0E94B60B5E
:1017E0000F900F90DF91CF910895CF93DF93DC019D
:1017F000ED91FC91EB01A881B981309711F0109720
:10180000C9F4109759F0EB012C813D81232B31F065
:101810008C9190E091958195910914C0309781F059
:10182000DC0114968D919C911597892B49F080814C
:1018300090E008C0BD01CF01DF91CF910C948D0ED7
:1018400080E090E0DF91CF910895FC0144815581C3
:10185000FB01248135814217530741F40E94F50BA7
:1018600021E0892B09F020E0822F089580E008957F
:10187000FC0124813581232B31F421E061157105B0
:10188000A1F0FB0108C0FC01808191816115710507
:1018900031F421E0FC018081882339F005C00E94E9
:1018A0008D0E21E0892B09F020E0822F0895FC01A4
:1018B000248135816217730748F4808191810097F4
:1018C00029F0FC01E60FF71F8081089580E008955C
:1018D0000C94570C0895A1E21A2EAA1BBB1BFD0104
:1018E0000DC0AA1FBB1FEE1FFF1FA217B307E407FF
:1018F000F50720F0A21BB30BE40BF50B661F771F57
:10190000881F991F1A9469F7609570958095909536
:101910009B01AC01BD01CF010895EE0FFF1F0590A3
:10192000F491E02D0994CF93DF938230910510F468
:1019300082E090E0E0916D03F0916E0320E030E0F2
:10194000A0E0B0E0309739F1408151814817590744
:10195000B8F04817590771F482819381109729F0E4
:1019600013969C938E9312972CC090936E03809342
:101970006D0327C02115310531F04217530718F0C8
:10198000A901DB0101C0EF019A01BD01DF01028065
:10199000F381E02DD7CF21153105F9F0281B390B44
:1019A0002430310580F48A819B816115710521F015
:1019B000FB019383828304C090936E0380936D0335
:1019C000FE01329644C0FE01E20FF31F8193919312
:1019D00022503109398328833AC020916B0330911A
:1019E0006C03232B41F420910201309103013093C9
:1019F0006C0320936B0320910001309101012115AC
:101A0000310541F42DB73EB74091040150910501D5
:101A1000241B350BE0916B03F0916C03E217F30785
:101A2000A0F42E1B3F0B2817390778F0AC014E5F4E
:101A30005F4F2417350748F04E0F5F1F50936C031C
:101A400040936B038193919302C0E0E0F0E0CF01FB
:101A5000DF91CF910895CF93DF93009709F487C06A
:101A6000FC01329713821282C0916D03D0916E03F4
:101A7000209781F420813181280F391F80916B03D9
:101A800090916C038217930779F5F0936C03E093C0
:101A90006B036DC0DE0120E030E0AE17BF0750F4ED
:101AA00012964D915C9113979D014115510509F1D5
:101AB000DA01F3CFB383A28340815181840F951F54
:101AC0008A179B0771F48D919C911197840F951F34
:101AD00002969183808312968D919C9113979383A4
:101AE00082832115310529F4F0936E03E0936D0391
:101AF0003EC0D9011396FC93EE9312974D915D91E0
:101B0000A40FB51FEA17FB0779F480819181840F38
:101B1000951F0296D90111969C938E938281938191
:101B200013969C938E931297E0E0F0E08A819B815C
:101B3000009719F0FE01EC01F9CFCE010296288141
:101B40003981820F931F20916B0330916C0328170A
:101B5000390769F4309729F410926E0310926D03DF
:101B600002C013821282D0936C03C0936B03DF9187
:101B7000CF910895A0E0B0E0E0ECFDE00C94A10E60
:101B8000EC01CB01209719F40E94930CB8C0FE0120
:101B9000E60FF71F9E0122503109E217F30708F400
:101BA000ACC0D9010D911C91119706171707B8F019
:101BB0000530110508F49FC0A8014450510946178B
:101BC000570708F498C002501109061B170B019320
:101BD00011936D937C93CF010E942B0D8CC05B0100
:101BE000A01AB10A4E01800E911EA0916D03B09112
:101BF0006E03612C712C60E070E0109709F449C00D
:101C0000A815B905C9F5ED90FC901197670142E060
:101C1000C40ED11CCA14DB0478F147018A189B0852
:101C2000640142E0C40ED11C1296BC901297139628
:101C3000AC91B5E0CB16D10440F0B282A38391827F
:101C40008082D9018D939C9309C00E5F1F4F0E0DAA
:101C50001F1DF90111830083EB2DFA2F611571050A
:101C600031F0DB011396FC93EE93129744C0F0938E
:101C70006E03E0936D033FC06D917C9111976616E2
:101C8000770608F43B01BD0112960D90BC91A02D82
:101C9000B4CF60916B0370916C0368157905E9F41A
:101CA00068167906D0F44091000150910101411568
:101CB000510541F44DB75EB7609104017091050183
:101CC000461B570BE417F507C0F4F0936C03E09341
:101CD0006B03F901918380830EC00E94930C7C01F9
:101CE000009759F0A801BE010E94840ECE010E9407
:101CF0002B0DC70104C0CE0102C080E090E0CDB73B
:101D0000DEB7EEE00C94BD0EFB01DC0102C00190D9
:101D10000D9241505040D8F70895FB01DC018D91A0
:101D2000019080190110D9F3990B0895FB01DC0192
:101D300001900D920020E1F708952F923F924F926B
:101D40005F926F927F928F929F92AF92BF92CF924B
:101D5000DF92EF92FF920F931F93CF93DF93CDB754
:101D6000DEB7CA1BDB0B0FB6F894DEBF0FBECDBFCC
:101D700009942A88398848885F846E847D848C849D
:101D80009B84AA84B984C884DF80EE80FD800C81A6
:101D90001B81AA81B981CE0FD11D0FB6F894DEBF89
:101DA0000FBECDBFED01089510E0C8ECD0E004C037
:101DB000FE010E948F0C2296CA3CD107C9F7F89405
:021DC000FFCF53
:101DC20000006F0380000100000040001400540076
:101DD2004543484F00524947310052494732004378
:101DE2004C53200057656220526164696F202D2098
:101DF200444C4E41005374617274696E672E2E2EEC
:101E02000053485444005368757474696E672064C3
:101E12006F776E2E2E2E00476F6F646279650056C3
:101E22004F4C2B00564F4C2D0054554E2B00545501
:101E32004E2D004D5554450000000000620335034D
:101E42000A03120325033403000000004E065C0956
:101E520000FF0100010000FFFF0000010001FF0080
:101E62000D0A006E616E00696E66006F7666000094
:101E72000000003C0A5C09BE09D709C9091A0A0018
:00000001FF
